{"abi":[{"type":"constructor","inputs":[],"stateMutability":"nonpayable"},{"type":"function","name":"APPROVER","inputs":[],"outputs":[{"name":"","type":"bytes32","internalType":"bytes32"}],"stateMutability":"view"},{"type":"function","name":"APPROVER_ADMIN","inputs":[],"outputs":[{"name":"","type":"bytes32","internalType":"bytes32"}],"stateMutability":"view"},{"type":"function","name":"BANNER","inputs":[],"outputs":[{"name":"","type":"bytes32","internalType":"bytes32"}],"stateMutability":"view"},{"type":"function","name":"BANNER_ADMIN","inputs":[],"outputs":[{"name":"","type":"bytes32","internalType":"bytes32"}],"stateMutability":"view"},{"type":"function","name":"DEFAULT_ADMIN_ROLE","inputs":[],"outputs":[{"name":"","type":"bytes32","internalType":"bytes32"}],"stateMutability":"view"},{"type":"function","name":"REMOVER","inputs":[],"outputs":[{"name":"","type":"bytes32","internalType":"bytes32"}],"stateMutability":"view"},{"type":"function","name":"REMOVER_ADMIN","inputs":[],"outputs":[{"name":"","type":"bytes32","internalType":"bytes32"}],"stateMutability":"view"},{"type":"function","name":"accountStatusAtTime","inputs":[{"name":"account_","type":"address","internalType":"address"},{"name":"timestamp_","type":"uint256","internalType":"uint256"}],"outputs":[{"name":"","type":"uint256","internalType":"VerifyStatus"}],"stateMutability":"view"},{"type":"function","name":"add","inputs":[{"name":"data_","type":"bytes","internalType":"bytes"}],"outputs":[],"stateMutability":"nonpayable"},{"type":"function","name":"approve","inputs":[{"name":"evidences_","type":"tuple[]","internalType":"struct Evidence[]","components":[{"name":"account","type":"address","internalType":"address"},{"name":"data","type":"bytes","internalType":"bytes"}]}],"outputs":[],"stateMutability":"nonpayable"},{"type":"function","name":"ban","inputs":[{"name":"evidences_","type":"tuple[]","internalType":"struct Evidence[]","components":[{"name":"account","type":"address","internalType":"address"},{"name":"data","type":"bytes","internalType":"bytes"}]}],"outputs":[],"stateMutability":"nonpayable"},{"type":"function","name":"callback","inputs":[],"outputs":[{"name":"","type":"address","internalType":"contract IVerifyCallbackV1"}],"stateMutability":"view"},{"type":"function","name":"getRoleAdmin","inputs":[{"name":"role","type":"bytes32","internalType":"bytes32"}],"outputs":[{"name":"","type":"bytes32","internalType":"bytes32"}],"stateMutability":"view"},{"type":"function","name":"grantRole","inputs":[{"name":"role","type":"bytes32","internalType":"bytes32"},{"name":"account","type":"address","internalType":"address"}],"outputs":[],"stateMutability":"nonpayable"},{"type":"function","name":"hasRole","inputs":[{"name":"role","type":"bytes32","internalType":"bytes32"},{"name":"account","type":"address","internalType":"address"}],"outputs":[{"name":"","type":"bool","internalType":"bool"}],"stateMutability":"view"},{"type":"function","name":"initialize","inputs":[{"name":"data_","type":"bytes","internalType":"bytes"}],"outputs":[{"name":"","type":"bytes32","internalType":"bytes32"}],"stateMutability":"nonpayable"},{"type":"function","name":"remove","inputs":[{"name":"evidences_","type":"tuple[]","internalType":"struct Evidence[]","components":[{"name":"account","type":"address","internalType":"address"},{"name":"data","type":"bytes","internalType":"bytes"}]}],"outputs":[],"stateMutability":"nonpayable"},{"type":"function","name":"renounceRole","inputs":[{"name":"role","type":"bytes32","internalType":"bytes32"},{"name":"account","type":"address","internalType":"address"}],"outputs":[],"stateMutability":"nonpayable"},{"type":"function","name":"requestApprove","inputs":[{"name":"evidences_","type":"tuple[]","internalType":"struct Evidence[]","components":[{"name":"account","type":"address","internalType":"address"},{"name":"data","type":"bytes","internalType":"bytes"}]}],"outputs":[],"stateMutability":"nonpayable"},{"type":"function","name":"requestBan","inputs":[{"name":"evidences_","type":"tuple[]","internalType":"struct Evidence[]","components":[{"name":"account","type":"address","internalType":"address"},{"name":"data","type":"bytes","internalType":"bytes"}]}],"outputs":[],"stateMutability":"nonpayable"},{"type":"function","name":"requestRemove","inputs":[{"name":"evidences_","type":"tuple[]","internalType":"struct Evidence[]","components":[{"name":"account","type":"address","internalType":"address"},{"name":"data","type":"bytes","internalType":"bytes"}]}],"outputs":[],"stateMutability":"nonpayable"},{"type":"function","name":"revokeRole","inputs":[{"name":"role","type":"bytes32","internalType":"bytes32"},{"name":"account","type":"address","internalType":"address"}],"outputs":[],"stateMutability":"nonpayable"},{"type":"function","name":"state","inputs":[{"name":"account_","type":"address","internalType":"address"}],"outputs":[{"name":"","type":"tuple","internalType":"struct State","components":[{"name":"addedSince","type":"uint32","internalType":"uint32"},{"name":"approvedSince","type":"uint32","internalType":"uint32"},{"name":"bannedSince","type":"uint32","internalType":"uint32"}]}],"stateMutability":"view"},{"type":"function","name":"statusAtTime","inputs":[{"name":"state_","type":"tuple","internalType":"struct State","components":[{"name":"addedSince","type":"uint32","internalType":"uint32"},{"name":"approvedSince","type":"uint32","internalType":"uint32"},{"name":"bannedSince","type":"uint32","internalType":"uint32"}]},{"name":"timestamp_","type":"uint256","internalType":"uint256"}],"outputs":[{"name":"status_","type":"uint256","internalType":"VerifyStatus"}],"stateMutability":"pure"},{"type":"function","name":"supportsInterface","inputs":[{"name":"interfaceId","type":"bytes4","internalType":"bytes4"}],"outputs":[{"name":"","type":"bool","internalType":"bool"}],"stateMutability":"view"},{"type":"event","name":"Approve","inputs":[{"name":"sender","type":"address","indexed":false,"internalType":"address"},{"name":"evidence","type":"tuple","indexed":false,"internalType":"struct Evidence","components":[{"name":"account","type":"address","internalType":"address"},{"name":"data","type":"bytes","internalType":"bytes"}]}],"anonymous":false},{"type":"event","name":"Ban","inputs":[{"name":"sender","type":"address","indexed":false,"internalType":"address"},{"name":"evidence","type":"tuple","indexed":false,"internalType":"struct Evidence","components":[{"name":"account","type":"address","internalType":"address"},{"name":"data","type":"bytes","internalType":"bytes"}]}],"anonymous":false},{"type":"event","name":"Initialize","inputs":[{"name":"sender","type":"address","indexed":false,"internalType":"address"},{"name":"config","type":"tuple","indexed":false,"internalType":"struct VerifyConfig","components":[{"name":"admin","type":"address","internalType":"address"},{"name":"callback","type":"address","internalType":"address"}]}],"anonymous":false},{"type":"event","name":"Initialized","inputs":[{"name":"version","type":"uint8","indexed":false,"internalType":"uint8"}],"anonymous":false},{"type":"event","name":"Remove","inputs":[{"name":"sender","type":"address","indexed":false,"internalType":"address"},{"name":"evidence","type":"tuple","indexed":false,"internalType":"struct Evidence","components":[{"name":"account","type":"address","internalType":"address"},{"name":"data","type":"bytes","internalType":"bytes"}]}],"anonymous":false},{"type":"event","name":"RequestApprove","inputs":[{"name":"sender","type":"address","indexed":false,"internalType":"address"},{"name":"evidence","type":"tuple","indexed":false,"internalType":"struct Evidence","components":[{"name":"account","type":"address","internalType":"address"},{"name":"data","type":"bytes","internalType":"bytes"}]}],"anonymous":false},{"type":"event","name":"RequestBan","inputs":[{"name":"sender","type":"address","indexed":false,"internalType":"address"},{"name":"evidence","type":"tuple","indexed":false,"internalType":"struct Evidence","components":[{"name":"account","type":"address","internalType":"address"},{"name":"data","type":"bytes","internalType":"bytes"}]}],"anonymous":false},{"type":"event","name":"RequestRemove","inputs":[{"name":"sender","type":"address","indexed":false,"internalType":"address"},{"name":"evidence","type":"tuple","indexed":false,"internalType":"struct Evidence","components":[{"name":"account","type":"address","internalType":"address"},{"name":"data","type":"bytes","internalType":"bytes"}]}],"anonymous":false},{"type":"event","name":"RoleAdminChanged","inputs":[{"name":"role","type":"bytes32","indexed":true,"internalType":"bytes32"},{"name":"previousAdminRole","type":"bytes32","indexed":true,"internalType":"bytes32"},{"name":"newAdminRole","type":"bytes32","indexed":true,"internalType":"bytes32"}],"anonymous":false},{"type":"event","name":"RoleGranted","inputs":[{"name":"role","type":"bytes32","indexed":true,"internalType":"bytes32"},{"name":"account","type":"address","indexed":true,"internalType":"address"},{"name":"sender","type":"address","indexed":true,"internalType":"address"}],"anonymous":false},{"type":"event","name":"RoleRevoked","inputs":[{"name":"role","type":"bytes32","indexed":true,"internalType":"bytes32"},{"name":"account","type":"address","indexed":true,"internalType":"address"},{"name":"sender","type":"address","indexed":true,"internalType":"address"}],"anonymous":false},{"type":"error","name":"InitializeSignatureFn","inputs":[]},{"type":"error","name":"OutOfBoundsTruncate","inputs":[{"name":"arrayLength","type":"uint256","internalType":"uint256"},{"name":"truncatedLength","type":"uint256","internalType":"uint256"}]}],"bytecode":{"object":"0x6080604052348015600f57600080fd5b506016601a565b60d7565b600054610100900460ff161560855760405162461bcd60e51b815260206004820152602760248201527f496e697469616c697a61626c653a20636f6e747261637420697320696e697469604482015266616c697a696e6760c81b606482015260840160405180910390fd5b60005460ff9081161460d5576000805460ff191660ff9081179091556040519081527f7f26b83ff96e1f2b6a682f133852f6798a09c465da95921460cefb38474024989060200160405180910390a15b565b612d4f806100e66000396000f3fe608060405234801561001057600080fd5b50600436106101a35760003560e01c80637c7d7f7a116100ee578063b9bd013511610097578063d547741f11610071578063d547741f146104e0578063db8554fc146104f3578063e04dcf3d14610506578063e2fac37c1461051957600080fd5b8063b9bd0135146104a7578063ba658111146104ba578063cd491526146104cd57600080fd5b80639f839222116100c85780639f83922214610465578063a217fddf14610478578063b8c55bfa1461048057600080fd5b80637c7d7f7a146103e557806381792e44146103f857806391d148541461041f57600080fd5b806331e658a511610150578063439fab911161012a578063439fab91146103985780635df0675a146103ab5780637547a867146103be57600080fd5b806331e658a5146102a957806336568abe1461035e5780633d111c7e1461037157600080fd5b80631e210912116101815780631e2109121461024a578063248a9ca3146102715780632f2ff15d1461029457600080fd5b806301ffc9a7146101a8578063083b2732146101d0578063100ec99814610215575b600080fd5b6101bb6101b636600461247c565b61052c565b60405190151581526020015b60405180910390f35b6098546101f09073ffffffffffffffffffffffffffffffffffffffff1681565b60405173ffffffffffffffffffffffffffffffffffffffff90911681526020016101c7565b61023c7f9d65f741849e7609dd1e2c70f0d7da5f5433b36bfcf3ba4d27d2bb08ad2155b181565b6040519081526020016101c7565b61023c7f2d4d1d70bd81797c3479f5c3f873a5c9203d249659c3b317cdad46367472783c81565b61023c61027f3660046124be565b60009081526065602052604090206001015490565b6102a76102a2366004612500565b6105c5565b005b61032f6102b736600461252c565b60408051606080820183526000808352602080840182905292840181905273ffffffffffffffffffffffffffffffffffffffff9490941684526097825292829020825193840183525463ffffffff80821685526401000000008204811692850192909252680100000000000000009004169082015290565b60408051825163ffffffff908116825260208085015182169083015292820151909216908201526060016101c7565b6102a761036c366004612500565b6105ef565b61023c7f5ff1fb0ce9089603e6e193667ed17164e0360a6148f4a39fc194055588948a3181565b61023c6103a6366004612547565b6106a7565b6102a76103b93660046125b9565b610b65565b61023c7f794e4221ebb6dd4e460d558b4ec709511d44017d6610ba89daa896c0684ddfac81565b6102a76103f3366004612790565b610c9d565b61023c7fbb496ca6fee71a17f78592fbc6fc7f04a436edb9c709c4289d6bbfbc5fd45f4d81565b6101bb61042d366004612500565b600091825260656020908152604080842073ffffffffffffffffffffffffffffffffffffffff93909316845291905290205460ff1690565b6102a7610473366004612790565b6110d8565b61023c600081565b61023c7f5a686c9d070917be517818979fb56f451f007e3ae83e96fb5a22a304929b070d81565b61023c6104b5366004612867565b61137e565b6102a76104c8366004612547565b6113ec565b6102a76104db3660046125b9565b611736565b6102a76104ee366004612500565b611b76565b61023c6105013660046128eb565b611b9b565b6102a76105143660046125b9565b611c0c565b6102a76105273660046125b9565b611d40565b60007fffffffff0000000000000000000000000000000000000000000000000000000082167f7965db0b0000000000000000000000000000000000000000000000000000000014806105bf57507f01ffc9a7000000000000000000000000000000000000000000000000000000007fffffffff000000000000000000000000000000000000000000000000000000008316145b92915050565b6000828152606560205260409020600101546105e081611e74565b6105ea8383611e81565b505050565b73ffffffffffffffffffffffffffffffffffffffff81163314610699576040517f08c379a000000000000000000000000000000000000000000000000000000000815260206004820152602f60248201527f416363657373436f6e74726f6c3a2063616e206f6e6c792072656e6f756e636560448201527f20726f6c657320666f722073656c66000000000000000000000000000000000060648201526084015b60405180910390fd5b6106a38282611f75565b5050565b60008054610100900460ff16158080156106c85750600054600160ff909116105b806106e25750303b1580156106e2575060005460ff166001145b61076e576040517f08c379a000000000000000000000000000000000000000000000000000000000815260206004820152602e60248201527f496e697469616c697a61626c653a20636f6e747261637420697320616c72656160448201527f647920696e697469616c697a65640000000000000000000000000000000000006064820152608401610690565b600080547fffffffffffffffffffffffffffffffffffffffffffffffffffffffffffffff0016600117905580156107cc57600080547fffffffffffffffffffffffffffffffffffffffffffffffffffffffffffff00ff166101001790555b60006107da84860186612915565b805190915073ffffffffffffffffffffffffffffffffffffffff1661085b576040517f08c379a000000000000000000000000000000000000000000000000000000000815260206004820152600960248201527f305f4143434f554e5400000000000000000000000000000000000000000000006044820152606401610690565b610863612030565b61088d7f2d4d1d70bd81797c3479f5c3f873a5c9203d249659c3b317cdad46367472783c806120c9565b6108d77f5ff1fb0ce9089603e6e193667ed17164e0360a6148f4a39fc194055588948a317f2d4d1d70bd81797c3479f5c3f873a5c9203d249659c3b317cdad46367472783c6120c9565b6109017f9d65f741849e7609dd1e2c70f0d7da5f5433b36bfcf3ba4d27d2bb08ad2155b1806120c9565b61094b7f794e4221ebb6dd4e460d558b4ec709511d44017d6610ba89daa896c0684ddfac7f9d65f741849e7609dd1e2c70f0d7da5f5433b36bfcf3ba4d27d2bb08ad2155b16120c9565b6109757fbb496ca6fee71a17f78592fbc6fc7f04a436edb9c709c4289d6bbfbc5fd45f4d806120c9565b6109bf7f5a686c9d070917be517818979fb56f451f007e3ae83e96fb5a22a304929b070d7fbb496ca6fee71a17f78592fbc6fc7f04a436edb9c709c4289d6bbfbc5fd45f4d6120c9565b6109ed7f2d4d1d70bd81797c3479f5c3f873a5c9203d249659c3b317cdad46367472783c8260000151611e81565b610a1b7f9d65f741849e7609dd1e2c70f0d7da5f5433b36bfcf3ba4d27d2bb08ad2155b18260000151611e81565b610a497fbb496ca6fee71a17f78592fbc6fc7f04a436edb9c709c4289d6bbfbc5fd45f4d8260000151611e81565b60208181018051609880547fffffffffffffffffffffffff00000000000000000000000000000000000000001673ffffffffffffffffffffffffffffffffffffffff928316179055604080513381528551831694810194909452915116908201527fed00b297c1b136ccaa940038371e3751cf8ca3c2bd51002f9bc4a4ad908441d09060600160405180910390a17fe0e57eda3f08f2a93bbe980d3df7f9c315eac41181f58b865a13d917fe769fc39250508015610b5e57600080547fffffffffffffffffffffffffffffffffffffffffffffffffffffffffffff00ff169055604051600181527f7f26b83ff96e1f2b6a682f133852f6798a09c465da95921460cefb38474024989060200160405180910390a15b5092915050565b336000908152609760209081526040918290208251606081018452905463ffffffff8082168352640100000000820481169383019390935268010000000000000000900490911691810191909152610bc890600290610bc4904261137e565b1490565b610c2e576040517f08c379a000000000000000000000000000000000000000000000000000000000815260206004820152600d60248201527f4f4e4c595f415050524f564544000000000000000000000000000000000000006044820152606401610690565b60005b818110156105ea577f9def0eb63e24d052c362c931f2ab4c31eda642472ddc393a44484906f374ba4d33848484818110610c6d57610c6d612952565b9050602002810190610c7f9190612981565b604051610c8d9291906129bf565b60405180910390a1600101610c31565b7f5ff1fb0ce9089603e6e193667ed17164e0360a6148f4a39fc194055588948a31610cc781611e74565b60408051606081018252600080825260208201819052918101919091526000835167ffffffffffffffff811115610d0057610d0061261c565b604051908082528060200260200182016040528015610d29578160200160208202803683370190505b5090506000845167ffffffffffffffff811115610d4857610d4861261c565b604051908082528060200260200182016040528015610d71578160200160208202803683370190505b50905060008060005b8751811015610f80576000888281518110610d9757610d97612952565b602090810291909101810151805173ffffffffffffffffffffffffffffffffffffffff166000908152609783526040908190208151606081018352905463ffffffff80821680845264010000000083048216968401969096526801000000000000000090910416918101919091529850915060011115610e5c57604080516060808201835260008083526020808401829052928401528251908101835263ffffffff428116825291810182905291820152602080860288010182905296506001909301925b63ffffffff8016876020015163ffffffff1603610f3e5763ffffffff4281166020808a01918252835173ffffffffffffffffffffffffffffffffffffffff16600090815260979091526040908190208a5181549351928c0151851668010000000000000000027fffffffffffffffffffffffffffffffffffffffff00000000ffffffffffffffff938616640100000000027fffffffffffffffffffffffffffffffffffffffffffffffff000000000000000090951691909516179290921716919091179055610f378582858181602002602001840152505050565b6001909201915b7fd140ad1540fe1b6d943b0509d447b34e0719ff7f9c6175d26a870abc89c9304f3382604051610f6f929190612b52565b60405180910390a150600101610d7a565b5060985473ffffffffffffffffffffffffffffffffffffffff1680156110ce57821561103757610fb08584612114565b6040517f89bd6b2600000000000000000000000000000000000000000000000000000000815273ffffffffffffffffffffffffffffffffffffffff8216906389bd6b26906110049033908990600401612b81565b600060405180830381600087803b15801561101e57600080fd5b505af1158015611032573d6000803e3d6000fd5b505050505b81156110ce576110478483612114565b6040517f376dcbe200000000000000000000000000000000000000000000000000000000815273ffffffffffffffffffffffffffffffffffffffff82169063376dcbe29061109b9033908890600401612b81565b600060405180830381600087803b1580156110b557600080fd5b505af11580156110c9573d6000803e3d6000fd5b505050505b5050505050505050565b7f794e4221ebb6dd4e460d558b4ec709511d44017d6610ba89daa896c0684ddfac61110281611e74565b60408051606081018252600080825260208201819052918101919091526000835167ffffffffffffffff81111561113b5761113b61261c565b604051908082528060200260200182016040528015611164578160200160208202803683370190505b5090506000805b85518110156112bf57600086828151811061118857611188612952565b60200260200101519050609760008884815181106111a8576111a8612952565b6020908102919091018101515173ffffffffffffffffffffffffffffffffffffffff1682528181019290925260409081016000208151606081018352905463ffffffff808216808452640100000000830482169584019590955268010000000000000000909104169181019190915295501561127d57805173ffffffffffffffffffffffffffffffffffffffff16600090815260976020908152604090912080547fffffffffffffffffffffffffffffffffffffffff0000000000000000000000001690558381028501018190526001909201915b7fb6a0d4e5532c50d585db7a2aeb6d4628467d3c969d491458bb46c3dba33c46da33826040516112ae929190612b52565b60405180910390a15060010161116b565b5060985473ffffffffffffffffffffffffffffffffffffffff168015611376578115611376576112ef8383612114565b6040517febae2d8c00000000000000000000000000000000000000000000000000000000815273ffffffffffffffffffffffffffffffffffffffff82169063ebae2d8c906113439033908790600401612b81565b600060405180830381600087803b15801561135d57600080fd5b505af1158015611371573d6000803e3d6000fd5b505050505b505050505050565b60006001836000015163ffffffff16101561139b575060006105bf565b81836040015163ffffffff16116113b4575060036105bf565b81836020015163ffffffff16116113cd575060026105bf565b825163ffffffff1682106113e3575060016105bf565b50600092915050565b3360009081526097602090815260408083208151606081018352905463ffffffff808216835264010000000082048116948301949094526801000000000000000090049092169082015290611441824261137e565b905060028114158015611455575060038114155b6114bb576040517f08c379a000000000000000000000000000000000000000000000000000000000815260206004820152600e60248201527f414c52454144595f4558495354530000000000000000000000000000000000006044820152606401610690565b8061158a57604080516060808201835260008083526020808401829052928401528251908101835263ffffffff428116825291810182905291820152336000908152609760209081526040918290208351815492850151949093015163ffffffff90811668010000000000000000027fffffffffffffffffffffffffffffffffffffffff00000000ffffffffffffffff958216640100000000027fffffffffffffffffffffffffffffffffffffffffffffffff0000000000000000909416919094161791909117929092161790555b600060405180604001604052803373ffffffffffffffffffffffffffffffffffffffff16815260200186868080601f01602080910402602001604051908101604052809392919081815260200183838082843760009201919091525050509152506040519091507f9def0eb63e24d052c362c931f2ab4c31eda642472ddc393a44484906f374ba4d906116209033908490612b52565b60405180910390a160985473ffffffffffffffffffffffffffffffffffffffff16801561137657604080516001808252818301909252600091816020015b60408051808201909152600081526060602082015281526020019060019003908161165e579050509050828160008151811061169c5761169c612952565b60209081029190910101526040517f89bd6b2600000000000000000000000000000000000000000000000000000000815273ffffffffffffffffffffffffffffffffffffffff8316906389bd6b26906116fb9033908590600401612b81565b600060405180830381600087803b15801561171557600080fd5b505af1158015611729573d6000803e3d6000fd5b5050505050505050505050565b7f5a686c9d070917be517818979fb56f451f007e3ae83e96fb5a22a304929b070d61176081611e74565b60408051606081018252600080825260208201819052918101829052908367ffffffffffffffff8111156117965761179661261c565b6040519080825280602002602001820160405280156117bf578160200160208202803683370190505b50905060008467ffffffffffffffff8111156117dd576117dd61261c565b604051908082528060200260200182016040528015611806578160200160208202803683370190505b50905060008060005b87811015611a1d57600089898381811061182b5761182b612952565b905060200281019061183d9190612981565b61184690612c21565b805173ffffffffffffffffffffffffffffffffffffffff166000908152609760209081526040918290208251606081018452905463ffffffff80821680845264010000000083048216948401949094526801000000000000000090910416928101929092529098509091506001111561190457604080516060808201835260008083526020808401829052928401528251908101835263ffffffff428116825291810182905291820152602080860288010182905296506001909301925b63ffffffff8016876040015163ffffffff16036119db5763ffffffff4281166040898101918252835173ffffffffffffffffffffffffffffffffffffffff166000908152609760209081529190208a518154838d01519451861668010000000000000000027fffffffffffffffffffffffffffffffffffffffff00000000ffffffffffffffff958716640100000000027fffffffffffffffffffffffffffffffffffffffffffffffff0000000000000000909216929096169190911717929092169290921790558381028601018190526001909201915b7f56ed5bd6a5ed51ea9976f064fa4b26035c05a8d1ef4f4cd92454befc5090e9d23382604051611a0c929190612b52565b60405180910390a15060010161180f565b5060985473ffffffffffffffffffffffffffffffffffffffff168015611b6b578215611ad457611a4d8584612114565b6040517f89bd6b2600000000000000000000000000000000000000000000000000000000815273ffffffffffffffffffffffffffffffffffffffff8216906389bd6b2690611aa19033908990600401612b81565b600060405180830381600087803b158015611abb57600080fd5b505af1158015611acf573d6000803e3d6000fd5b505050505b8115611b6b57611ae48483612114565b6040517f8f6b114600000000000000000000000000000000000000000000000000000000815273ffffffffffffffffffffffffffffffffffffffff821690638f6b114690611b389033908890600401612b81565b600060405180830381600087803b158015611b5257600080fd5b505af1158015611b66573d6000803e3d6000fd5b505050505b505050505050505050565b600082815260656020526040902060010154611b9181611e74565b6105ea8383611f75565b73ffffffffffffffffffffffffffffffffffffffff821660009081526097602090815260408083208151606081018352905463ffffffff8082168352640100000000820481169483019490945268010000000000000000900490921690820152611c05908361137e565b9392505050565b336000908152609760209081526040918290208251606081018452905463ffffffff8082168352640100000000820481169383019390935268010000000000000000900490911691810191909152611c6b90600290610bc4904261137e565b611cd1576040517f08c379a000000000000000000000000000000000000000000000000000000000815260206004820152600d60248201527f4f4e4c595f415050524f564544000000000000000000000000000000000000006044820152606401610690565b60005b818110156105ea577f9d48392ffd5df4ad821c86aa1f446e2b39cfecb6acd84a5b1dd41e3b4c1defce33848484818110611d1057611d10612952565b9050602002810190611d229190612981565b604051611d309291906129bf565b60405180910390a1600101611cd4565b336000908152609760209081526040918290208251606081018452905463ffffffff8082168352640100000000820481169383019390935268010000000000000000900490911691810191909152611d9f90600290610bc4904261137e565b611e05576040517f08c379a000000000000000000000000000000000000000000000000000000000815260206004820152600d60248201527f4f4e4c595f415050524f564544000000000000000000000000000000000000006044820152606401610690565b60005b818110156105ea577f1b7bdec72dbe138bce2074865e8cf0347693327c317e9c1fdfe914001d48b5d133848484818110611e4457611e44612952565b9050602002810190611e569190612981565b604051611e649291906129bf565b60405180910390a1600101611e08565b611e7e8133612160565b50565b600082815260656020908152604080832073ffffffffffffffffffffffffffffffffffffffff8516845290915290205460ff166106a357600082815260656020908152604080832073ffffffffffffffffffffffffffffffffffffffff85168452909152902080547fffffffffffffffffffffffffffffffffffffffffffffffffffffffffffffff00166001179055611f173390565b73ffffffffffffffffffffffffffffffffffffffff168173ffffffffffffffffffffffffffffffffffffffff16837f2f8788117e7eff1d82e926ec794901d17c78024a50270940304540a733656f0d60405160405180910390a45050565b600082815260656020908152604080832073ffffffffffffffffffffffffffffffffffffffff8516845290915290205460ff16156106a357600082815260656020908152604080832073ffffffffffffffffffffffffffffffffffffffff8516808552925280832080547fffffffffffffffffffffffffffffffffffffffffffffffffffffffffffffff0016905551339285917ff6391f5c32d9c69d2a47ea670b442974b53935d1edc7fd64eb21e047a839171b9190a45050565b600054610100900460ff166120c7576040517f08c379a000000000000000000000000000000000000000000000000000000000815260206004820152602b60248201527f496e697469616c697a61626c653a20636f6e7472616374206973206e6f74206960448201527f6e697469616c697a696e670000000000000000000000000000000000000000006064820152608401610690565b565b600082815260656020526040808220600101805490849055905190918391839186917fbd79b86ffe0ab8e8776151514217cd7cacd52c909f66475c3af44e129f0b00ff9190a4505050565b815181111561215c5781516040517f383f2cc8000000000000000000000000000000000000000000000000000000008152600481019190915260248101829052604401610690565b9052565b600082815260656020908152604080832073ffffffffffffffffffffffffffffffffffffffff8516845290915290205460ff166106a3576121a08161221a565b6121ab836020612239565b6040516020016121bc929190612c2d565b604080517fffffffffffffffffffffffffffffffffffffffffffffffffffffffffffffffe0818403018152908290527f08c379a000000000000000000000000000000000000000000000000000000000825261069091600401612cae565b60606105bf73ffffffffffffffffffffffffffffffffffffffff831660145b60606000612248836002612cf0565b612253906002612d07565b67ffffffffffffffff81111561226b5761226b61261c565b6040519080825280601f01601f191660200182016040528015612295576020820181803683370190505b5090507f3000000000000000000000000000000000000000000000000000000000000000816000815181106122cc576122cc612952565b60200101907effffffffffffffffffffffffffffffffffffffffffffffffffffffffffffff1916908160001a9053507f78000000000000000000000000000000000000000000000000000000000000008160018151811061232f5761232f612952565b60200101907effffffffffffffffffffffffffffffffffffffffffffffffffffffffffffff1916908160001a905350600061236b846002612cf0565b612376906001612d07565b90505b6001811115612413577f303132333435363738396162636465660000000000000000000000000000000085600f16601081106123b7576123b7612952565b1a60f81b8282815181106123cd576123cd612952565b60200101907effffffffffffffffffffffffffffffffffffffffffffffffffffffffffffff1916908160001a90535060049490941c9361240c81612d1a565b9050612379565b508315611c05576040517f08c379a000000000000000000000000000000000000000000000000000000000815260206004820181905260248201527f537472696e67733a20686578206c656e67746820696e73756666696369656e746044820152606401610690565b60006020828403121561248e57600080fd5b81357fffffffff0000000000000000000000000000000000000000000000000000000081168114611c0557600080fd5b6000602082840312156124d057600080fd5b5035919050565b803573ffffffffffffffffffffffffffffffffffffffff811681146124fb57600080fd5b919050565b6000806040838503121561251357600080fd5b82359150612523602084016124d7565b90509250929050565b60006020828403121561253e57600080fd5b611c05826124d7565b6000806020838503121561255a57600080fd5b823567ffffffffffffffff8082111561257257600080fd5b818501915085601f83011261258657600080fd5b81358181111561259557600080fd5b8660208285010111156125a757600080fd5b60209290920196919550909350505050565b600080602083850312156125cc57600080fd5b823567ffffffffffffffff808211156125e457600080fd5b818501915085601f8301126125f857600080fd5b81358181111561260757600080fd5b8660208260051b85010111156125a757600080fd5b7f4e487b7100000000000000000000000000000000000000000000000000000000600052604160045260246000fd5b6040805190810167ffffffffffffffff8111828210171561266e5761266e61261c565b60405290565b604051601f82017fffffffffffffffffffffffffffffffffffffffffffffffffffffffffffffffe016810167ffffffffffffffff811182821017156126bb576126bb61261c565b604052919050565b6000604082840312156126d557600080fd5b6126dd61264b565b90506126e8826124d7565b815260208083013567ffffffffffffffff8082111561270657600080fd5b818501915085601f83011261271a57600080fd5b81358181111561272c5761272c61261c565b61275c847fffffffffffffffffffffffffffffffffffffffffffffffffffffffffffffffe0601f84011601612674565b9150808252868482850101111561277257600080fd5b80848401858401376000908201840152918301919091525092915050565b600060208083850312156127a357600080fd5b823567ffffffffffffffff808211156127bb57600080fd5b818501915085601f8301126127cf57600080fd5b8135818111156127e1576127e161261c565b8060051b6127f0858201612674565b918252838101850191858101908984111561280a57600080fd5b86860192505b83831015612846578235858111156128285760008081fd5b6128368b89838a01016126c3565b8352509186019190860190612810565b9998505050505050505050565b803563ffffffff811681146124fb57600080fd5b600080828403608081121561287b57600080fd5b606081121561288957600080fd5b506040516060810181811067ffffffffffffffff821117156128ad576128ad61261c565b6040526128b984612853565b81526128c760208501612853565b60208201526128d860408501612853565b6040820152946060939093013593505050565b600080604083850312156128fe57600080fd5b612907836124d7565b946020939093013593505050565b60006040828403121561292757600080fd5b61292f61264b565b612938836124d7565b8152612946602084016124d7565b60208201529392505050565b7f4e487b7100000000000000000000000000000000000000000000000000000000600052603260045260246000fd5b600082357fffffffffffffffffffffffffffffffffffffffffffffffffffffffffffffffc18336030181126129b557600080fd5b9190910192915050565b600073ffffffffffffffffffffffffffffffffffffffff808516835260406020840152806129ec856124d7565b1660408401525060208301357fffffffffffffffffffffffffffffffffffffffffffffffffffffffffffffffe1843603018112612a2857600080fd5b830160208101903567ffffffffffffffff811115612a4557600080fd5b803603821315612a5457600080fd5b60406060850152806080850152808260a0860137600060a0828601015260a07fffffffffffffffffffffffffffffffffffffffffffffffffffffffffffffffe0601f830116850101925050509392505050565b60005b83811015612ac2578181015183820152602001612aaa565b50506000910152565b60008151808452612ae3816020860160208601612aa7565b601f017fffffffffffffffffffffffffffffffffffffffffffffffffffffffffffffffe0169290920160200192915050565b73ffffffffffffffffffffffffffffffffffffffff81511682526000602082015160406020850152612b4a6040850182612acb565b949350505050565b73ffffffffffffffffffffffffffffffffffffffff83168152604060208201526000612b4a6040830184612b15565b60006040820173ffffffffffffffffffffffffffffffffffffffff8516835260206040602085015281855180845260608601915060608160051b87010193506020870160005b82811015612c13577fffffffffffffffffffffffffffffffffffffffffffffffffffffffffffffffa0888703018452612c01868351612b15565b95509284019290840190600101612bc7565b509398975050505050505050565b60006105bf36836126c3565b7f416363657373436f6e74726f6c3a206163636f756e7420000000000000000000815260008351612c65816017850160208801612aa7565b7f206973206d697373696e6720726f6c65200000000000000000000000000000006017918401918201528351612ca2816028840160208801612aa7565b01602801949350505050565b602081526000611c056020830184612acb565b7f4e487b7100000000000000000000000000000000000000000000000000000000600052601160045260246000fd5b80820281158282048414176105bf576105bf612cc1565b808201808211156105bf576105bf612cc1565b600081612d2957612d29612cc1565b507fffffffffffffffffffffffffffffffffffffffffffffffffffffffffffffffff019056","linkReferences":{}},"methodIdentifiers":{"APPROVER()":"3d111c7e","APPROVER_ADMIN()":"1e210912","BANNER()":"b8c55bfa","BANNER_ADMIN()":"81792e44","DEFAULT_ADMIN_ROLE()":"a217fddf","REMOVER()":"7547a867","REMOVER_ADMIN()":"100ec998","accountStatusAtTime(address,uint256)":"db8554fc","add(bytes)":"ba658111","approve((address,bytes)[])":"7c7d7f7a","ban((address,bytes)[])":"cd491526","callback()":"083b2732","getRoleAdmin(bytes32)":"248a9ca3","grantRole(bytes32,address)":"2f2ff15d","hasRole(bytes32,address)":"91d14854","initialize(bytes)":"439fab91","remove((address,bytes)[])":"9f839222","renounceRole(bytes32,address)":"36568abe","requestApprove((address,bytes)[])":"5df0675a","requestBan((address,bytes)[])":"e2fac37c","requestRemove((address,bytes)[])":"e04dcf3d","revokeRole(bytes32,address)":"d547741f","state(address)":"31e658a5","statusAtTime((uint32,uint32,uint32),uint256)":"b9bd0135","supportsInterface(bytes4)":"01ffc9a7"},"id":42}