{"abi":[{"type":"function","name":"afterAdd","inputs":[{"name":"adder_","type":"address","internalType":"address"},{"name":"evidences_","type":"tuple[]","internalType":"struct Evidence[]","components":[{"name":"account","type":"address","internalType":"address"},{"name":"data","type":"bytes","internalType":"bytes"}]}],"outputs":[],"stateMutability":"nonpayable"},{"type":"function","name":"afterApprove","inputs":[{"name":"approver_","type":"address","internalType":"address"},{"name":"evidences_","type":"tuple[]","internalType":"struct Evidence[]","components":[{"name":"account","type":"address","internalType":"address"},{"name":"data","type":"bytes","internalType":"bytes"}]}],"outputs":[],"stateMutability":"nonpayable"},{"type":"function","name":"afterBan","inputs":[{"name":"banner_","type":"address","internalType":"address"},{"name":"evidences_","type":"tuple[]","internalType":"struct Evidence[]","components":[{"name":"account","type":"address","internalType":"address"},{"name":"data","type":"bytes","internalType":"bytes"}]}],"outputs":[],"stateMutability":"nonpayable"},{"type":"function","name":"afterRemove","inputs":[{"name":"remover_","type":"address","internalType":"address"},{"name":"evidences_","type":"tuple[]","internalType":"struct Evidence[]","components":[{"name":"account","type":"address","internalType":"address"},{"name":"data","type":"bytes","internalType":"bytes"}]}],"outputs":[],"stateMutability":"nonpayable"},{"type":"function","name":"owner","inputs":[],"outputs":[{"name":"","type":"address","internalType":"address"}],"stateMutability":"view"},{"type":"function","name":"renounceOwnership","inputs":[],"outputs":[],"stateMutability":"nonpayable"},{"type":"function","name":"transferOwnership","inputs":[{"name":"newOwner","type":"address","internalType":"address"}],"outputs":[],"stateMutability":"nonpayable"},{"type":"event","name":"Initialized","inputs":[{"name":"version","type":"uint8","indexed":false,"internalType":"uint8"}],"anonymous":false},{"type":"event","name":"OwnershipTransferred","inputs":[{"name":"previousOwner","type":"address","indexed":true,"internalType":"address"},{"name":"newOwner","type":"address","indexed":true,"internalType":"address"}],"anonymous":false}],"bytecode":{"object":"0x6080604052348015600f57600080fd5b506103848061001f6000396000f3fe608060405234801561001057600080fd5b506004361061007d5760003560e01c80638da5cb5b1161005b5780638da5cb5b1461009f5780638f6b114614610082578063ebae2d8c14610082578063f2fde38b146100cb57600080fd5b8063376dcbe214610082578063715018a61461009757806389bd6b2614610082575b600080fd5b6100956100903660046102dc565b6100de565b005b6100956100eb565b6033546040805173ffffffffffffffffffffffffffffffffffffffff9092168252519081900360200190f35b6100956100d9366004610362565b6100ff565b6100e66101bb565b505050565b6100f36101bb565b6100fd600061023c565b565b6101076101bb565b73ffffffffffffffffffffffffffffffffffffffff81166101af576040517f08c379a000000000000000000000000000000000000000000000000000000000815260206004820152602660248201527f4f776e61626c653a206e6577206f776e657220697320746865207a65726f206160448201527f646472657373000000000000000000000000000000000000000000000000000060648201526084015b60405180910390fd5b6101b88161023c565b50565b60335473ffffffffffffffffffffffffffffffffffffffff1633146100fd576040517f08c379a000000000000000000000000000000000000000000000000000000000815260206004820181905260248201527f4f776e61626c653a2063616c6c6572206973206e6f7420746865206f776e657260448201526064016101a6565b6033805473ffffffffffffffffffffffffffffffffffffffff8381167fffffffffffffffffffffffff0000000000000000000000000000000000000000831681179093556040519116919082907f8be0079c531659141344cd1fd0a4f28419497f9722a3daafe3b4186f6b6457e090600090a35050565b803573ffffffffffffffffffffffffffffffffffffffff811681146102d757600080fd5b919050565b6000806000604084860312156102f157600080fd5b6102fa846102b3565b9250602084013567ffffffffffffffff8082111561031757600080fd5b818601915086601f83011261032b57600080fd5b81358181111561033a57600080fd5b8760208260051b850101111561034f57600080fd5b6020830194508093505050509250925092565b60006020828403121561037457600080fd5b61037d826102b3565b939250505056","linkReferences":{}},"methodIdentifiers":{"afterAdd(address,(address,bytes)[])":"89bd6b26","afterApprove(address,(address,bytes)[])":"376dcbe2","afterBan(address,(address,bytes)[])":"8f6b1146","afterRemove(address,(address,bytes)[])":"ebae2d8c","owner()":"8da5cb5b","renounceOwnership()":"715018a6","transferOwnership(address)":"f2fde38b"},"id":43}