{"abi":[{"type":"constructor","inputs":[],"stateMutability":"nonpayable"},{"type":"function","name":"afterAdd","inputs":[{"name":"adder","type":"address","internalType":"address"},{"name":"evidences","type":"tuple[]","internalType":"struct Evidence[]","components":[{"name":"account","type":"address","internalType":"address"},{"name":"data","type":"bytes","internalType":"bytes"}]}],"outputs":[],"stateMutability":"nonpayable"},{"type":"function","name":"afterApprove","inputs":[{"name":"approver_","type":"address","internalType":"address"},{"name":"evidences_","type":"tuple[]","internalType":"struct Evidence[]","components":[{"name":"account","type":"address","internalType":"address"},{"name":"data","type":"bytes","internalType":"bytes"}]}],"outputs":[],"stateMutability":"nonpayable"},{"type":"function","name":"afterBan","inputs":[{"name":"banner_","type":"address","internalType":"address"},{"name":"evidences_","type":"tuple[]","internalType":"struct Evidence[]","components":[{"name":"account","type":"address","internalType":"address"},{"name":"data","type":"bytes","internalType":"bytes"}]}],"outputs":[],"stateMutability":"nonpayable"},{"type":"function","name":"afterRemove","inputs":[{"name":"remover_","type":"address","internalType":"address"},{"name":"evidences_","type":"tuple[]","internalType":"struct Evidence[]","components":[{"name":"account","type":"address","internalType":"address"},{"name":"data","type":"bytes","internalType":"bytes"}]}],"outputs":[],"stateMutability":"nonpayable"},{"type":"function","name":"initialize","inputs":[{"name":"data","type":"bytes","internalType":"bytes"}],"outputs":[{"name":"success","type":"bytes32","internalType":"bytes32"}],"stateMutability":"nonpayable"},{"type":"function","name":"owner","inputs":[],"outputs":[{"name":"","type":"address","internalType":"address"}],"stateMutability":"view"},{"type":"function","name":"renounceOwnership","inputs":[],"outputs":[],"stateMutability":"nonpayable"},{"type":"function","name":"transferOwnership","inputs":[{"name":"newOwner","type":"address","internalType":"address"}],"outputs":[],"stateMutability":"nonpayable"},{"type":"event","name":"ContextV2","inputs":[{"name":"sender","type":"address","indexed":false,"internalType":"address"},{"name":"context","type":"bytes32[][]","indexed":false,"internalType":"bytes32[][]"}],"anonymous":false},{"type":"event","name":"Initialize","inputs":[{"name":"sender","type":"address","indexed":false,"internalType":"address"},{"name":"config","type":"tuple","indexed":false,"internalType":"struct AutoApproveConfig","components":[{"name":"owner","type":"address","internalType":"address"},{"name":"evaluable","type":"tuple","internalType":"struct EvaluableV4","components":[{"name":"interpreter","type":"address","internalType":"contract IInterpreterV4"},{"name":"store","type":"address","internalType":"contract IInterpreterStoreV3"},{"name":"bytecode","type":"bytes","internalType":"bytes"}]}]}],"anonymous":false},{"type":"event","name":"Initialized","inputs":[{"name":"version","type":"uint8","indexed":false,"internalType":"uint8"}],"anonymous":false},{"type":"event","name":"OwnershipTransferred","inputs":[{"name":"previousOwner","type":"address","indexed":true,"internalType":"address"},{"name":"newOwner","type":"address","indexed":true,"internalType":"address"}],"anonymous":false},{"type":"error","name":"InitializeSignatureFn","inputs":[]},{"type":"error","name":"OutOfBoundsTruncate","inputs":[{"name":"arrayLength","type":"uint256","internalType":"uint256"},{"name":"truncatedLength","type":"uint256","internalType":"uint256"}]}],"bytecode":{"object":"0x6080604052348015600f57600080fd5b506016601a565b60d7565b600054610100900460ff161560855760405162461bcd60e51b815260206004820152602760248201527f496e697469616c697a61626c653a20636f6e747261637420697320696e697469604482015266616c697a696e6760c81b606482015260840160405180910390fd5b60005460ff9081161460d5576000805460ff191660ff9081179091556040519081527f7f26b83ff96e1f2b6a682f133852f6798a09c465da95921460cefb38474024989060200160405180910390a15b565b6118d1806100e66000396000f3fe608060405234801561001057600080fd5b50600436106100885760003560e01c80638da5cb5b1161005b5780638da5cb5b146100e35780638f6b11461461008d578063ebae2d8c1461008d578063f2fde38b1461010b57600080fd5b8063376dcbe21461008d578063439fab91146100a2578063715018a6146100c857806389bd6b26146100d0575b600080fd5b6100a061009b366004610dc0565b61011e565b005b6100b56100b0366004610e48565b61012b565b6040519081526020015b60405180910390f35b6100a06103b8565b6100a06100de366004610dc0565b6103cc565b60335460405173ffffffffffffffffffffffffffffffffffffffff90911681526020016100bf565b6100a0610119366004610eba565b6109ca565b610126610a81565b505050565b60008054610100900460ff161580801561014c5750600054600160ff909116105b806101665750303b158015610166575060005460ff166001145b6101f7576040517f08c379a000000000000000000000000000000000000000000000000000000000815260206004820152602e60248201527f496e697469616c697a61626c653a20636f6e747261637420697320616c72656160448201527f647920696e697469616c697a656400000000000000000000000000000000000060648201526084015b60405180910390fd5b600080547fffffffffffffffffffffffffffffffffffffffffffffffffffffffffffffff00166001179055801561025557600080547fffffffffffffffffffffffffffffffffffffffffffffffffffffffffffff00ff166101001790555b61025d610b02565b600061026b84860186611036565b905061027a8160000151610ba1565b7fdc611a127c4ba4fc956e726a3e679b69bb78afef1ce760b2d7c8b716d7090cf933826040516102ab92919061116e565b60405180910390a160208082015180516065805473ffffffffffffffffffffffffffffffffffffffff9283167fffffffffffffffffffffffff0000000000000000000000000000000000000000918216178255938301516066805491909316941693909317905560408101519091906067906103279082611283565b507fe0e57eda3f08f2a93bbe980d3df7f9c315eac41181f58b865a13d917fe769fc3945050505080156103b157600080547fffffffffffffffffffffffffffffffffffffffffffffffffffffffffffff00ff169055604051600181527f7f26b83ff96e1f2b6a682f133852f6798a09c465da95921460cefb38474024989060200160405180910390a15b5092915050565b6103c0610a81565b6103ca6000610ba1565b565b6103d783838361011e565b60008167ffffffffffffffff8111156103f2576103f2610ede565b60405190808252806020026020018201604052801561041b578160200160208202803683370190505b506040805160018082528183019092529192506000918291816020015b6060815260200190600190039081610438575050604080516002808252606082018352929350919060208301908036833701905050816000815181106104805761048061139d565b602090810291909101810191909152604080516060810182526065805473ffffffffffffffffffffffffffffffffffffffff90811683526066541693820193909352606780546000949293840191906104d8906111e0565b80601f0160208091040260200160405190810160405280929190818152602001828054610504906111e0565b80156105515780601f1061052657610100808354040283529160200191610551565b820191906000526020600020905b81548152906001019060200180831161053457829003601f168201915b505050505081525050905060005b85811015610941578686828181106105795761057961139d565b905060200281019061058b91906113cc565b61059990602081019061140a565b9050602003610939578686828181106105b4576105b461139d565b90506020028101906105c691906113cc565b6105d4906020810190610eba565b73ffffffffffffffffffffffffffffffffffffffff1660001b836000815181106106005761060061139d565b602002602001015160008151811061061a5761061a61139d565b6020026020010181815250508686828181106106385761063861139d565b905060200281019061064a91906113cc565b61065890602081019061140a565b61066191611476565b836000815181106106745761067461139d565b602002602001015160018151811061068e5761068e61139d565b6020026020010181815250507f4cb6e22a3e7e651d7cf0376cff48f20f5007a54147777865be7f5f6c38c50f4a33846040516106cb929190611567565b60405180910390a1600080836000015173ffffffffffffffffffffffffffffffffffffffff1663d04dfe236040518060e00160405280876020015173ffffffffffffffffffffffffffffffffffffffff16815260200161073660003060009182526020526040902090565b81526020018760400151815260200160008152602001888152602001600067ffffffffffffffff81111561076c5761076c610ede565b604051908082528060200260200182016040528015610795578160200160208202803683370190505b50815260200160006040519080825280602002602001820160405280156107c6578160200160208202803683370190505b508152506040518263ffffffff1660e01b81526004016107e6919061159e565b600060405180830381865afa158015610803573d6000803e3d6000fd5b505050506040513d6000823e601f3d9081017fffffffffffffffffffffffffffffffffffffffffffffffffffffffffffffffe016820160405261084991908101906116f9565b915091506000801b826001845103815181106108675761086761139d565b602002602001015111156108bc576108b5878a8a8681811061088b5761088b61139d565b905060200281019061089d91906113cc565b6108a6906117b5565b6020808a029290920190910152565b6001909501945b80511561093657836020015173ffffffffffffffffffffffffffffffffffffffff166304b19db46000836040518363ffffffff1660e01b815260040161090392919061180e565b600060405180830381600087803b15801561091d57600080fd5b505af1158015610931573d6000803e3d6000fd5b505050505b50505b60010161055f565b5082156109c1576109528484610c18565b6040517f7c7d7f7a0000000000000000000000000000000000000000000000000000000081523390637c7d7f7a9061098e908790600401611827565b600060405180830381600087803b1580156109a857600080fd5b505af11580156109bc573d6000803e3d6000fd5b505050505b50505050505050565b6109d2610a81565b73ffffffffffffffffffffffffffffffffffffffff8116610a75576040517f08c379a000000000000000000000000000000000000000000000000000000000815260206004820152602660248201527f4f776e61626c653a206e6577206f776e657220697320746865207a65726f206160448201527f646472657373000000000000000000000000000000000000000000000000000060648201526084016101ee565b610a7e81610ba1565b50565b60335473ffffffffffffffffffffffffffffffffffffffff1633146103ca576040517f08c379a000000000000000000000000000000000000000000000000000000000815260206004820181905260248201527f4f776e61626c653a2063616c6c6572206973206e6f7420746865206f776e657260448201526064016101ee565b600054610100900460ff16610b99576040517f08c379a000000000000000000000000000000000000000000000000000000000815260206004820152602b60248201527f496e697469616c697a61626c653a20636f6e7472616374206973206e6f74206960448201527f6e697469616c697a696e6700000000000000000000000000000000000000000060648201526084016101ee565b6103ca610c64565b6033805473ffffffffffffffffffffffffffffffffffffffff8381167fffffffffffffffffffffffff0000000000000000000000000000000000000000831681179093556040519116919082907f8be0079c531659141344cd1fd0a4f28419497f9722a3daafe3b4186f6b6457e090600090a35050565b8151811115610c605781516040517f383f2cc80000000000000000000000000000000000000000000000000000000081526004810191909152602481018290526044016101ee565b9052565b600054610100900460ff16610cfb576040517f08c379a000000000000000000000000000000000000000000000000000000000815260206004820152602b60248201527f496e697469616c697a61626c653a20636f6e7472616374206973206e6f74206960448201527f6e697469616c697a696e6700000000000000000000000000000000000000000060648201526084016101ee565b6103ca600054610100900460ff16610d95576040517f08c379a000000000000000000000000000000000000000000000000000000000815260206004820152602b60248201527f496e697469616c697a61626c653a20636f6e7472616374206973206e6f74206960448201527f6e697469616c697a696e6700000000000000000000000000000000000000000060648201526084016101ee565b6103ca33610ba1565b73ffffffffffffffffffffffffffffffffffffffff81168114610a7e57600080fd5b600080600060408486031215610dd557600080fd5b8335610de081610d9e565b9250602084013567ffffffffffffffff80821115610dfd57600080fd5b818601915086601f830112610e1157600080fd5b813581811115610e2057600080fd5b8760208260051b8501011115610e3557600080fd5b6020830194508093505050509250925092565b60008060208385031215610e5b57600080fd5b823567ffffffffffffffff80821115610e7357600080fd5b818501915085601f830112610e8757600080fd5b813581811115610e9657600080fd5b866020828501011115610ea857600080fd5b60209290920196919550909350505050565b600060208284031215610ecc57600080fd5b8135610ed781610d9e565b9392505050565b7f4e487b7100000000000000000000000000000000000000000000000000000000600052604160045260246000fd5b6040805190810167ffffffffffffffff81118282101715610f3057610f30610ede565b60405290565b6040516060810167ffffffffffffffff81118282101715610f3057610f30610ede565b604051601f82017fffffffffffffffffffffffffffffffffffffffffffffffffffffffffffffffe016810167ffffffffffffffff81118282101715610fa057610fa0610ede565b604052919050565b600082601f830112610fb957600080fd5b813567ffffffffffffffff811115610fd357610fd3610ede565b61100460207fffffffffffffffffffffffffffffffffffffffffffffffffffffffffffffffe0601f84011601610f59565b81815284602083860101111561101957600080fd5b816020850160208301376000918101602001919091529392505050565b60006020828403121561104857600080fd5b813567ffffffffffffffff8082111561106057600080fd5b908301906040828603121561107457600080fd5b61107c610f0d565b823561108781610d9e565b815260208301358281111561109b57600080fd5b9290920191606083870312156110b057600080fd5b6110b8610f36565b83356110c381610d9e565b815260208401356110d381610d9e565b60208201526040840135838111156110ea57600080fd5b6110f688828701610fa8565b604083015250602082015295945050505050565b6000815180845260005b8181101561113057602081850181015186830182015201611114565b5060006020828601015260207fffffffffffffffffffffffffffffffffffffffffffffffffffffffffffffffe0601f83011685010191505092915050565b600073ffffffffffffffffffffffffffffffffffffffff8085168352604060208401528084511660408401526020840151604060608501528181511660808501528160208201511660a08501526040810151915050606060c08401526111d760e084018261110a565b95945050505050565b600181811c908216806111f457607f821691505b60208210810361122d577f4e487b7100000000000000000000000000000000000000000000000000000000600052602260045260246000fd5b50919050565b601f821115610126576000816000526020600020601f850160051c8101602086101561125c5750805b601f850160051c820191505b8181101561127b57828155600101611268565b505050505050565b815167ffffffffffffffff81111561129d5761129d610ede565b6112b1816112ab84546111e0565b84611233565b602080601f83116001811461130457600084156112ce5750858301515b7fffffffffffffffffffffffffffffffffffffffffffffffffffffffffffffffff600386901b1c1916600185901b17855561127b565b6000858152602081207fffffffffffffffffffffffffffffffffffffffffffffffffffffffffffffffe08616915b8281101561135157888601518255948401946001909101908401611332565b508582101561138d57878501517fffffffffffffffffffffffffffffffffffffffffffffffffffffffffffffffff600388901b60f8161c191681555b5050505050600190811b01905550565b7f4e487b7100000000000000000000000000000000000000000000000000000000600052603260045260246000fd5b600082357fffffffffffffffffffffffffffffffffffffffffffffffffffffffffffffffc183360301811261140057600080fd5b9190910192915050565b60008083357fffffffffffffffffffffffffffffffffffffffffffffffffffffffffffffffe184360301811261143f57600080fd5b83018035915067ffffffffffffffff82111561145a57600080fd5b60200191503681900382131561146f57600080fd5b9250929050565b803560208310156114ad577fffffffffffffffffffffffffffffffffffffffffffffffffffffffffffffffff602084900360031b1b165b92915050565b60008151808452602080850194506020840160005b838110156114e4578151875295820195908201906001016114c8565b509495945050505050565b60008282518085526020808601955060208260051b8401016020860160005b8481101561155a577fffffffffffffffffffffffffffffffffffffffffffffffffffffffffffffffe08684030189526115488383516114b3565b9884019892509083019060010161150e565b5090979650505050505050565b73ffffffffffffffffffffffffffffffffffffffff8316815260406020820152600061159660408301846114ef565b949350505050565b6020815273ffffffffffffffffffffffffffffffffffffffff8251166020820152602082015160408201526000604083015160e060608401526115e561010084018261110a565b90506060840151608084015260808401517fffffffffffffffffffffffffffffffffffffffffffffffffffffffffffffffe0808584030160a086015261162b83836114ef565b925060a08601519150808584030160c086015261164883836114b3565b925060c08601519150808584030160e0860152506111d782826114b3565b600067ffffffffffffffff82111561168057611680610ede565b5060051b60200190565b600082601f83011261169b57600080fd5b815160206116b06116ab83611666565b610f59565b8083825260208201915060208460051b8701019350868411156116d257600080fd5b602086015b848110156116ee57805183529183019183016116d7565b509695505050505050565b6000806040838503121561170c57600080fd5b825167ffffffffffffffff8082111561172457600080fd5b818501915085601f83011261173857600080fd5b815160206117486116ab83611666565b82815260059290921b8401810191818101908984111561176757600080fd5b948201945b838610156117855785518252948201949082019061176c565b9188015191965090935050508082111561179e57600080fd5b506117ab8582860161168a565b9150509250929050565b6000604082360312156117c757600080fd5b6117cf610f0d565b82356117da81610d9e565b8152602083013567ffffffffffffffff8111156117f657600080fd5b61180236828601610fa8565b60208301525092915050565b82815260406020820152600061159660408301846114b3565b600060208083018184528085518083526040925060408601915060408160051b87010184880160005b838110156118c3578883037fffffffffffffffffffffffffffffffffffffffffffffffffffffffffffffffc00185528151805173ffffffffffffffffffffffffffffffffffffffff1684528701518784018790526118b08785018261110a565b9588019593505090860190600101611850565b50909897505050505050505056","linkReferences":{}},"methodIdentifiers":{"afterAdd(address,(address,bytes)[])":"89bd6b26","afterApprove(address,(address,bytes)[])":"376dcbe2","afterBan(address,(address,bytes)[])":"8f6b1146","afterRemove(address,(address,bytes)[])":"ebae2d8c","initialize(bytes)":"439fab91","owner()":"8da5cb5b","renounceOwnership()":"715018a6","transferOwnership(address)":"f2fde38b"},"id":44}